:0C0000000C94C4000C94F1000C94F80067
:10000C000C9402010C9400000C9400000C94000061
:10001C000C9400000C9400000C9400000C94110142
:10002C000C9400000C9400000C9400000C94000044
:10003C000C9400000C9400000C9400000C94000034
:10004C000C9400000C9400003F065B4F666D7D071E
:10005C007F6F777C395E79711027E80364000A00A2
:10006C000100001000011000010000000000000061
:10007C00000001000100010001003738392F343530
:10008C00362A3132332D20303D2B456E746572206B
:10009C00557365726E616D653A00456E74657220BC
:1000AC0050617373776F72643A00557365722052A6
:1000BC0065676973746572656421004C6F67696E5E
:1000CC00205375636365737366756C210057726F8B
:1000DC006E6720557365722F50617373004C6F6798
:1000EC00696E203C3D0A5265676973746572004CF9
:1000FC006F67696E0A5265676973746572203C3D5F
:10010C000052656C6179203C3D0A42757A7A6572C1
:10011C000042757A7A6572203C3D0A4C4544004C8D
:10012C004544203C3D0A4C6F67204F7574004C6F62
:10013C0067204F7574203C3D0052656C6179204FEF
:10014C006E0042757A7A6572204F6E004C454420E1
:10015C004F6E000080C00A000400760001006002AF
:10016C00800001006402820001006602840010001D
:10017C00700286000200DD0260010000F894EE2798
:10018C00ECBBF1E0FBBFEBBFE5BF8DE0A2E0BB2712
:10019C00ED938A95E9F780E098E0A0E6ED9301975E
:1001AC00E9F7E2E6F1E085919591009761F0A59170
:1001BC00B59105901590BF01F00105900D92019736
:1001CC00E1F7FB01F0CFEFE5EDBFE8E0EEBFC0E6F5
:1001DC00D2E00C94DB03EA93E0E0E0936602E09358
:1001EC00670208C0EA93E0E0E0936402E0936502E2
:1001FC000E94DE04E9911895EA93FA93EFB7EA931B
:10020C00F20131962F01E0B3F0E00E949705EF70F8
:10021C00E09380020AC0EA93FA93EFB7EA93F401F1
:10022C0031964F01F50131965F01E991EFBFF991DC
:10023C00E99118950E94E40429F4A6E9B0E00E9423
:10024C006B0424C00E94EC0411F40E94F2040E947E
:10025C00FB042CF00E940005A081AD3309F404C00E
:10026C000E940605E081EC930E940C0529F00E9487
:10027C000005A081AD3351F40E9406050E941105C2
:10028C00E1E0F0E0E0936E02F0936F0208950E94BB
:10029C00E40429F4A6EAB0E00E946B043BC00E947F
:1002AC00EC0411F40E94F2040E9416052CF00E943A
:1002BC000005A081AD3309F404C00E941B05E08148
:1002CC00EC930E94210529F00E940005A081AD331A
:1002DC0009F50E941B05E081EC930E9426050E9403
:1002EC002E050E94D1040E9426050E9435050E940D
:1002FC00D104ABEDB2E00E943C05442455240E948D
:10030C002E04A6EBB0E00E944205E5E0F0E06F01A0
:10031C00AA24BB2408950E94E40429F4A6E9B0E0C1
:10032C000E946B0424C00E94EC0411F40E94F2049D
:10033C000E94FB042CF00E940005A081AD3309F44F
:10034C0004C00E940605E081EC930E940C0529F084
:10035C000E940005A081AD3351F40E9406050E9455
:10036C001105E1E0F0E0E0936C02F0936D0208956A
:10037C000E94E40429F4A6EAB0E00E946B0481C058
:10038C000E94EC0411F40E94F2040E9416052CF059
:10039C000E940005A081A03209F404C00E941B0534
:1003AC00E081EC930E94210531F00E940005A081B0
:1003BC00AD3309F066C00E941B05E081EC93E0E0D0
:1003CC00E0936A02E0936B02E091DB02F091DC02B5
:1003DC000E945905AE17BF075CF50E945905EFE066
:1003EC000E94A0050E942E050E94BD04E03059F425
:1003FC000E945905EFE00E94A0050E9435050E945D
:10040C00BD04E03009F00FC00E942E04662477244E
:10041C00E0E0EBBBA7ECB0E00E9442050E942E048A
:10042C00E6E0F0E02AC0AAE6B2E00E943C05CCCFA0
:10043C000E942E04E1E8F2E0FA93EA93E0E0EA93FA
:10044C00AAE0B0E00E94AD04EBE8F2E0FA93EA9384
:10045C00E0E0EA93A5E0B0E00E94AD04A9EDB0E0C5
:10046C000E946B040E94DE0444245524E0E0E093D7
:10047C006C02E0936D02E7E0F0E06F01AA24BB246C
:10048C0008950895E1E3F0E0E815F90584F4882473
:10049C009924F30131963F01EC5AFF4F04900BBAAB
:1004AC00EFE0F0E0E615F70511F4662477240895E3
:1004BC00E0916402F0916502309789F483990EC043
:1004CC00AA24BB24E1E0F0E0E0936402F09365021F
:1004DC00A0E6B2E00E943C050E94DE040CC08399A9
:1004EC000AC0E4E1F0E0EA15FB052CF4E0E0E0934F
:1004FC006402E09365020895E0916602F091670250
:10050C00309739F5829902C0AA24BB24EAE0F0E0C6
:10051C00EA15FB05F4F4E1E0F0E0E0936602F093F9
:10052C0067020E945E05309749F40E946305E093D0
:10053C006802F09369020E94DE040BC00E946805F9
:10054C00E5BBE0E0EBBB662477240E94DE04AA2422
:10055C00BB2408950E946E05ABDFCEDF0E94EC0435
:10056C0011F40E94F204A0916002B0916102139701
:10057C0011F40E9473050E946305E130A0E0FA07B4
:10058C0019F4A9EEB0E006C0E230A0E0FA0721F4BD
:10059C00ABEFB0E00E946B04A0916802B0916902CD
:1005AC00119769F4E2E0F0E06F0152D10E94DE0491
:1005BC000E946805E0936C02E0936D0212C0A0915A
:1005CC006802B0916902129761F4E3E0F0E06F0108
:1005DC003FD10E94DE040E946805E0936E02E09316
:1005EC006F0208950E946E050E94EC0411F40E94A3
:1005FC00F204A0916002B0916102159711F40E946F
:10060C0073050E946305E130A0E0FA0719F4ADE030
:10061C00B1E014C0E230A0E0FA0719F4ADE1B1E0AA
:10062C000DC0E330A0E0FA0719F4ABE2B1E006C06C
:10063C00E430A0E0FA0719F4AAE3B1E046D108953A
:10064C000E94EC0411F40E94F2040E946E050E94B8
:10065C005E05E130A0E0FA0749F4A89AE0E6F0E084
:10066C0004900BBAA5E4B1E030D13DC0E230A0E07B
:10067C00FA07C1F4EFE5F0E004900BBAAEE4B1E098
:10068C0024D1062C072839F488249924A99AF3013B
:10069C0031963F0106C0E1E3F0E0E815F9050CF4F2
:1006AC00A99821C0E330A0E0FA0749F4AA9AEEE534
:1006BC00F0E004900BBAA8E5B1E007D114C0E43027
:1006CC00A0E0FA0781F4E1E0F0E06F010E94DE04A3
:1006DC0044245524662477240E947305E0E0E093BB
:1006EC006802E09369020895F601E130A0E0FA0790
:1006FC0019F4C8DE2FDF58C0E230A0E0FA0789F405
:10070C00C1DEE0916C02F0916D02309711F403DEC2
:10071C0007C0A0916C02B0916D02119709F428DE0C
:10072C0043C0E330A0E0FA0789F4ACDEE0916E023E
:10073C00F0916F02309711F47DDD07C0A0916E022D
:10074C00B0916F02119709F4A2DD2EC0E430A0E045
:10075C00FA0751F4ADDED0DE0E945E05309711F43D
:10076C0041DF01C06DDF20C0E530A0E0FA0739F4AD
:10077C000E947A051CF4E1E0F0E06F0115C0E63050
:10078C00A0E0FA0739F40E947A051CF4E4E0F0E0EA
:10079C006F010AC0E730A0E0FA0731F40E947A0535
:1007AC001CF4E1E0F0E06F010895EFEFEABBE0E04C
:1007BC00EBBBE7BBE8BBE7E0E4BBE0E0E5BBE1BBE0
:1007CC00E2BBEFEFE0BBEDE0E3BFEBE9ECBFE2E057
:1007DC00E9BFEBB7E06EEBBFEAE0E5BFE4B7EF7B58
:1007EC00E4BFA0E185D078947FDFFECFFFCFAA9342
:1007FC00E8B3EF70AE2FE881E07FEA2BE8BB8DE029
:10080C008A95F1F7C39A8DE08A95F1F7C3988DE03C
:10081C008A95F1F79AC0AA93A881E9DFE881E2955D
:10082C00E883A881E4DF85E88A95F1F78EC0AA9366
:10083C00E881F0E0E352FD4FE081A981AE0FEBDFE0
:10084C00E981E093E102E881E093E20222960895C7
:10085C00A2E00E947F05ACE0DEDFA1E00E947F05F4
:10086C00E0E0E093E202E093E1020895AA93A8810C
:10087C00AA3031F0E091E302A091E102AE1760F0F2
:10088C00E0E0EA93A091E202AF5FA093E202CFDF37
:10089C00A881AA3009F459C0E091E102EF5FE0931E
:1008AC00E102C09AA881B7DFC0984FC0BA93AA934F
:1008BC001A93A981BA81ED91A983BA831E2FE030D6
:1008CC0019F0A12FD3DFF5CF10C0BA93AA931A93C6
:1008DC00E981FA813196E983FA833197E4911E2FED
:1008EC00E03019F0A12FC2DFF3CF188123960895C1
:1008FC00AA93E7B3E06FE7BBBB9AB89AB99AC398CF
:10090C00C098C198E881E093E302E058E093DF02DD
:10091C00E881E054E093E002A4E1B0E00E948D0590
:10092C000E9485050E9485050E948505A0E25FDF77
:10093C0088EC90E00197F1F7A8E26DDFA4E06BDFA3
:10094C00A5E869DFA6E067DF83DF21960895BA93F7
:10095C00AA93B981A881109631F0FC81EB816A8150
:10096C0061931197E9F7EB81FC8125960895BA9371
:10097C00AA93E991F991A991B9916D917191671728
:10098C0021F46623D1F7EE270895671BE1F3E1E02C
:10099C0008F4E2500895BA93AA93E991F991A991B8
:1009AC00B991CD0161916D936623E1F7FC01089536
:1009BC00E0E0E0936202E09363020895E0E0EA93E2
:1009CC00A0E00E941D04042C05280895E091620209
:1009DC00F0916302309708950E942E04E1E0F0E05C
:1009EC00E0936202F09363020895E9E0F0E0E4150D
:1009FC00F5050895E0918002F0E0E059FD4F08956F
:100A0C00F2013197EF57FD4FDF01F4CFA1E8B2E0CF
:100A1C000E945C04EACFE081EC9344245524C8CFB7
:100A2C00E4E0F0E0E415F5050895F2013197E5579F
:100A3C00FD4FDF01DFCFABE8B2E00E945C04F0CFEA
:100A4C00A091DB02B091DC02EFE00E94A0050895BA
:100A5C00E057FD4FFA93EA93A1E8B2E00895E65609
:100A6C00FD4FFA93EA93ABE8B2E00895ED91FD9156
:100A7C003196FE93EE9308950E946B04E1E8F2E048
:100A8C00FA93EA93E0E0EA93AAE0B0E00E94AD04A6
:100A9C00EBE8F2E0FA93EA93E0E0EA93A5E0B0E049
:100AAC000E94AD0485CFA0916A02B0916B020895AB
:100ABC00E0916802F09169020895E0916002F09172
:100ACC0061020895E0E0E0936802E0936902089502
:100ADC00E0E0EA93A0E00C941D04E1E0F0E0E09388
:100AEC006002F09361020895E1E3F0E0EA15FB0582
:100AFC0008950E941104A3E0B0E00C948D05A0E3CE
:100B0C000E94FD0388EC90E00197F1F70895109690
:100B1C0039F080ED97E00197F1F7A8951197C9F797
:100B2C000895F595E795F595E795F595E795F59580
:100B3C00E79508956E2F6A9FF0016B9FF00D089555
:00000001FF
